:100000000C945D000C9485000C9485000C94850084
:100010000C9485000C9485000C9485000C9485004C
:100020000C9485000C9485000C9485000C9485003C
:100030000C9485000C9485000C9485000C9485002C
:100040000C94DF020C9485000C94AD020C94870292
:100050000C9485000C9485000C9485000C9485000C
:100060000C9485000C9485000000000024002700FB
:100070002A0000000000250028002B0004040404CE
:100080000404040402020202020203030303030342
:10009000010204081020408001020408102001021F
:1000A00004081020000000080002010000030407FB
:1000B0000000000000000000C80411241FBECFEFA4
:1000C000D8E0DEBFCDBF11E0A0E0B1E0E2EDFDE0A1
:1000D00002C005900D92A033B107D9F721E0A0E34B
:1000E000B1E001C01D92A63DB207E1F710E0CDE5F9
:1000F000D0E004C02197FE010E94E106CC35D10773
:10010000C9F70E9429030C94E7060C940000AF92F3
:10011000BF92CF92DF92EF92FF920F931F93CF93F4
:10012000DF936C017B018B01040F151FEB015E0156
:10013000AE18BF08C017D10759F06991D601ED91EB
:10014000FC910190F081E02DC6010995892B79F78A
:10015000C501DF91CF911F910F91FF90EF90DF903C
:10016000CF90BF90AF900895FC01538D448D252F03
:1001700030E0842F90E0821B930B541710F0CF9641
:10018000089501970895FC01918D828D981761F073
:10019000A28DAE0FBF2FB11D5D968C91928D9F5F8A
:1001A0009F73928F90E008958FEF9FEF0895FC0169
:1001B000918D828D981731F0828DE80FF11D858D1C
:1001C00090E008958FEF9FEF0895FC01918D228DAF
:1001D000892F90E0805C9F4F821B91098F73992734
:1001E000089589E391E00E94E50021E0892B09F45C
:1001F00020E0822F089580E090E0892B29F00E9472
:10020000F10081110C9400000895FC01A48DA80F49
:10021000B92FB11DA35ABF4F2C91848D90E0019648
:100220008F739927848FA689B7892C93A089B18968
:100230008C91837080648C93938D848D981306C009
:100240000288F389E02D80818F7D80830895EF926D
:10025000FF920F931F93CF93DF93EC0181E0888F80
:100260009B8D8C8D98131AC0E889F989808185FF50
:1002700015C09FB7F894EE89FF896083E889F989F2
:1002800080818370806480839FBF81E090E0DF91F4
:10029000CF911F910F91FF90EF900895F62E0B8D47
:1002A00010E00F5F1F4F0F731127E02E8C8D8E1102
:1002B0000CC00FB607FCFACFE889F989808185FF69
:1002C000F5CFCE010E940501F1CFEB8DEC0FFD2F94
:1002D000F11DE35AFF4FF0829FB7F8940B8FEA8924
:1002E000FB8980818062CFCFCF93DF93EC01888D33
:1002F0008823B9F0AA89BB89E889F9898C9185FDA1
:1003000003C0808186FD0DC00FB607FCF7CF8C912E
:1003100085FFF2CF808185FFEDCFCE010E940501E0
:10032000E9CFDF91CF91089590E0FC01EC55FF4FAC
:100330002491FC01E057FF4F3491FC01E458FF4F3A
:10034000E491EE23C9F0222339F0233001F1A8F41F
:10035000213019F1223029F1F0E0EE0FFF1FEE58A5
:10036000FF4FA591B4918FB7F894EC91611126C01D
:1003700030953E233C938FBF08952730A9F0283055
:10038000C9F0243049F7809180008F7D03C08091AF
:1003900080008F7780938000DFCF84B58F7784BD16
:1003A000DBCF84B58F7DFBCF8091B0008F778093BA
:1003B000B000D2CF8091B0008F7DF9CF3E2BDACF45
:1003C000CF93DF9390E0FC01E057FF4F24918458D6
:1003D0009F4FFC0184918823D1F090E0880F991FF2
:1003E000FC01E859FF4FA591B491FC01EE58FF4F75
:1003F000C591D49161110EC09FB7F8948C91E22FF2
:10040000E0958E238C932881E223E8839FBFDF91C0
:10041000CF9108958FB7F894EC91E22BEC938FBFB6
:10042000F6CF3FB7F8948091350190913601A091B5
:100430003701B091380126B5A89B05C02F3F19F0B0
:100440000196A11DB11D3FBFBA2FA92F982F882754
:10045000BC01CD01620F711D811D911D42E0660F2F
:10046000771F881F991F4A95D1F70895FC010190C5
:100470000020E9F73197AF01481B590BBC0189E314
:1004800091E00C9487008F929F92AF92BF920F934E
:100490001F93CF93DF93CDB7DEB7A1970FB6F89434
:1004A000DEBF0FBECDBF19A2423008F44AE08E0174
:1004B0000F5D1F4F842E912CB12CA12CA50194010E
:1004C0000E94BF06E62FB901CA01EA30F4F4E05DEC
:1004D000D801EE938D01232B242B252B79F790E067
:1004E00080E0109719F0CD010E943602A1960FB658
:1004F000F894DEBF0FBECDBFDF91CF911F910F915A
:10050000BF90AF909F908F900895E95CE1CF1F92CC
:100510000F920FB60F9211242F933F934F935F9337
:100520006F937F938F939F93AF93BF93EF93FF93BB
:1005300089E391E00E940501FF91EF91BF91AF9196
:100540009F918F917F916F915F914F913F912F91EB
:100550000F900FBE0F901F9018951F920F920FB61D
:100560000F9211242F938F939F93EF93FF93E0911A
:100570004901F0914A018081E0914F01F0915001D1
:1005800082FD1BC09081809152018F5F8F732091FB
:100590005301821741F0E0915201F0E0E75CFE4F19
:1005A000958F80935201FF91EF919F918F912F91A1
:1005B0000F900FBE0F901F9018958081F4CF1F925F
:1005C0000F920FB60F9211242F933F938F939F9307
:1005D000AF93BF938091310190913201A09133018B
:1005E000B09134013091300123E0230F2D3758F5BD
:1005F0000196A11DB11D209330018093310190938C
:100600003201A0933301B093340180913501909170
:100610003601A0913701B09138010196A11DB11D9D
:100620008093350190933601A0933701B093380140
:10063000BF91AF919F918F913F912F910F900FBEDE
:100640000F901F90189526E8230F0296A11DB11D4B
:10065000D2CF789484B5826084BD84B5816084BD36
:1006600085B5826085BD85B5816085BD80916E0050
:10067000816080936E001092810080918100826081
:1006800080938100809181008160809381008091BE
:1006900080008160809380008091B10084608093AD
:1006A000B1008091B00081608093B00080917A00A9
:1006B000846080937A0080917A00826080937A00CF
:1006C00080917A00816080937A0080917A008068BE
:1006D00080937A001092C10061E083E00E94E00103
:1006E00061E08DE00E94E00160E081E10E94E001B4
:1006F000E0914901F0914A0182E08083E091450157
:10070000F09146011082E0914701F09148018FEC91
:10071000808310925101E0914D01F0914E0186E0ED
:100720008083E0914B01F0914C0180818061808356
:10073000E0914B01F0914C01808188608083E091D1
:100740004B01F0914C01808180688083E0914B01E6
:10075000F0914C0180818F7D808313E4C0E0D0E074
:1007600010937C0080917A00806480937A0080915D
:100770007A0086FDFCCF8091780060917900762F19
:10078000682F072E000C880B990B0E9498052AE011
:1007900038E240EA5BE30E944D0620E030E048EC9E
:1007A00052E40E944D066B017C0182E191E00E94BF
:1007B0003602A7019601C701B6010E94BA06882336
:1007C00009F44EC08FE191E00E9436028BE291E085
:1007D0000E9436028DE291E00E94360220E030E075
:1007E00048E452E4C701B6010E94480687FDCAC02A
:1007F00061E083E00E94940161E08DE00E94940139
:100800000E9411026B017C0188EE882E83E0982EF5
:10081000A12CB12C0E9411026C197D098E099F092F
:10082000683E734081059105A8F321E0821A910882
:10083000A108B10888EEC80E83E0D81EE11CF11CA7
:1008400081149104A104B10429F7209709F488CFF9
:100850000E94F100882309F483CF0E94000080CF1A
:1008600046015701E894B7F82FEF3FEF4FE75FE7F6
:10087000C501B4010E94BA0681110DC02FEF3FEFF0
:100880004FE75FE7C501B4010E94620518161CF42A
:1008900083E291E099CF2FEF3FEF4FE75FE4C7018D
:1008A000B6010E94480618161CF487E291E08CCF2E
:1008B0002FEF3FEF4FE75FECC701B6010E946205E3
:1008C00087FDF3CF20E030E0A901C701B6010E9407
:1008D000620587FF54C06DE289E391E00E94270121
:1008E000C701B60190582AE037ED43EA5BE30E9466
:1008F000F6042B013C010E9467054B015C010E943C
:1009000096059B01AC01C301B2010E94F5042B01C5
:100910003C014AE0C501B4010E9443026EE289E352
:1009200091E00E94270120E030E040E251E4C30161
:10093000B2010E944D062B013C010E9467054B014C
:10094000B12CA12C4AE0C501B4010E944302C501AB
:10095000B4010E9496059B01AC01C301B2010E9443
:10096000F50420E030E040E251E40E944D060E9490
:10097000670590E080E04AE00E94430227CFC7016C
:10098000B601B1CF60E083E00E94940160E035CF12
:10099000E9E3F1E01382128288EE93E0A0E0B0E098
:1009A00084839583A683B78384E091E091838083D9
:1009B00085EC90E09587848784EC90E09787868724
:1009C00080EC90E0918B808B81EC90E0938B828B1C
:1009D00082EC90E0958B848B86EC90E0978B868BF5
:1009E000118E128E138E148E08955058BB27AA278D
:1009F0000E940D050C940E060E94000638F00E941D
:100A0000070620F039F49F3F19F426F40C94FD05F5
:100A10000EF4E095E7FB0C94F705E92F0E941F0602
:100A200058F3BA17620773078407950720F079F423
:100A3000A6F50C9441060EF4E0950B2EBA2FA02DCE
:100A40000B01B90190010C01CA01A0011124FF277B
:100A5000591B99F0593F50F4503E68F11A16F04076
:100A6000A22F232F342F4427585FF3CF4695379575
:100A70002795A795F0405395C9F77EF41F16BA0B3A
:100A8000620B730B840BBAF09150A1F0FF0FBB1FE8
:100A9000661F771F881FC2F70EC0BA0F621F731F31
:100AA000841F48F4879577956795B795F7959E3F8E
:100AB00008F0B0CF9395880F08F09927EE0F97951F
:100AC000879508950E94D30508F481E008950E9457
:100AD000270688F09F5798F0B92F9927B751B0F0A3
:100AE000E1F0660F771F881F991F1AF0BA95C9F7B2
:100AF00014C0B13091F00E944106B1E008950C9409
:100B00004106672F782F8827B85F39F0B93FCCF3BB
:100B1000869577956795B395D9F73EF4909580952E
:100B2000709561957F4F8F4F9F4F0895E89409C04E
:100B300097FB3EF490958095709561957F4F8F4F10
:100B40009F4F9923A9F0F92F96E9BB279395F69526
:100B5000879577956795B795F111F8CFFAF4BB0FA4
:100B600011F460FF1BC06F5F7F4F8F4F9F4F16C008
:100B7000882311F096E911C0772321F09EE8872F92
:100B8000762F05C0662371F096E8862F70E060E04E
:100B90002AF09A95660F771F881FDAF7880F9695C7
:100BA000879597F90895990F0008550FAA0BE0E86B
:100BB000FEEF16161706E807F907C0F0121613061F
:100BC000E407F50798F0621B730B840B950B39F45F
:100BD0000A2661F0232B242B252B21F408950A26C5
:100BE00009F4A140A6958FEF811D811D089597F905
:100BF0009F6780E870E060E008959FEF80EC0895C3
:100C000000240A94161617061806090608950024EB
:100C10000A9412161306140605060895092E039465
:100C2000000C11F4882352F0BB0F40F4BF2B11F4D9
:100C300060FF04C06F5F7F4F8F4F9F4F089557FD38
:100C40009058440F551F59F05F3F71F04795880F3A
:100C500097FB991F61F09F3F79F0879508951216D1
:100C600013061406551FF2CF4695F1DF08C016167D
:100C700017061806991FF1CF86957105610508942E
:100C80000895E894BB2766277727CB0197F9089545
:100C90000E94D30508F48FEF08950E9460060C941B
:100CA0000E060E94000638F00E94070620F09523E9
:100CB00011F00C94F7050C94FD0511240C944206D8
:100CC0000E941F0670F3959FC1F3950F50E0551FCA
:100CD000629FF001729FBB27F00DB11D639FAA2791
:100CE000F00DB11DAA1F649F6627B00DA11D661FE0
:100CF000829F2227B00DA11D621F739FB00DA11D01
:100D0000621F839FA00D611D221F749F3327A00DBA
:100D1000611D231F849F600D211D822F762F6A2F56
:100D200011249F5750409AF0F1F088234AF0EE0FBB
:100D3000FF1FBB1F661F771F881F91505040A9F7E8
:100D40009E3F510580F00C94F7050C9442065F3FDE
:100D5000E4F3983ED4F3869577956795B795F79524
:100D6000E7959F5FC1F7FE2B880F911D969587959C
:100D700097F908950E94D305880B990B0895A1E275
:100D80001A2EAA1BBB1BFD010DC0AA1FBB1FEE1F05
:100D9000FF1FA217B307E407F50720F0A21BB30B50
:100DA000E40BF50B661F771F881F991F1A9469F7CC
:100DB00060957095809590959B01AC01BD01CF0128
:100DC0000895EE0FFF1F0590F491E02D0994F8941B
:020DD000FFCF53
:100DD2000000000027018700B4007401E500C30091
:100DE200D70054656D70657261747572653A006EF4
:100DF200616E00696E66006F76660043000D0A0040
:00000001FF
